S01B000053657061726174654170706C69636174696F6E2E7372656360
S1130000F9C000000DC10000DEC1000009C10000FC
S113001007C1000005C1000003C1000001C10000C8
S1130020FFC00000FDC00000FBC00000F9C00000DC
S1130030F7C00000F5C00000F4C00000F1C00000EB
S1130040EFC00000EDC00000EBC00000E9C00000FC
S11300500BC10000E5C00000E3C00000E1C00000E7
S1130060DFC00000DDC00000DBC00000D9C000001C
S1130070D7C00000D5C00000D3C00000D1C000002C
S1130080CFC00000CDC00000CBC00000C9C000003C
S1130090C7C00000C5C00000C3C00000C1C000004C
S11300A0BFC00000BDC00000BBC00000C5C100004F
S11300B0B7C00000B5C00000B3C000003EC10000DE
S11300C0AFC00000ADC00000ABC00000A9C000007C
S11300D0A7C0000055C10000A3C00000A1C00000DB
S11300E09FC000009DC000009BC0000099C000009C
S11300F097C0000095C0000093C0000091C00000AC
S11301008FC000008DC000008BC0000089C00000BB
S113011087C0000085C0000083C0000081C00000CB
S11301207FC000007DC000007BC0000079C00000DB
S113013077C00000BCC0000073C0000071C00000A4
S11301406FC000006DC000006BC00000D3C0000091
S113015067C0000065C0000063C0000061C000000B
S11301605FC000005DC000005BC0000059C000001B
S113017057C0000055C0000053C0000051C000002B
S11301804FC000004DC000004BC0000049C000003B
S113019047C0000045C0000043C0000041C000004B
S11301A03FC000003DC000003BC0000039C000005B
S11301B07CC1000035C0000033C0000031C0000025
S11301C02FC000002DC000002BC0000029C000007B
S11301D027C0000025C0000023C0000021C000008B
S11301E01FC000001DC000001BC0000019C000009B
S11301F017C0000011241FBECFEFCDBFDFE3DEBF69
S113020000E00CBF18BE19BE1ABE1BBE20E2A0E05F
S1130210B0E201C01D92A430B207E1F724D230C28B
S1130220EFCE1F920F920FB60F92112408B60F92C1
S113023018BE0BB60F921BBE8F93EF93FF93F894E7
S1130240E4E0F7E080818160808380818E7F808319
S1130250FF91EF918F910F900BBE0F9008BE0F90FE
S11302600FBE0F901F9018951F920F920FB60F920A
S1130270112408B60F9218BE0BB60F921BBE8F93B3
S1130280EF93FF93F894E4E0F7E080818260808349
S1130290808182608083FF91EF918F910F900BBEDC
S11302A00F9008BE0F900FBE0F901F9018951F92CD
S11302B00F920FB60F92112408B60F9218BE0BB608
S11302C00F921BBE8F93EF93FF93F894E4E0F7E053
S11302D080818460808380818B7F8083FF91EF9114
S11302E08F910F900BBE0F9008BE0F900FBE0F9012
S11302F01F9018951F920F920FB60F92112408B6F3
S11303000F9218BE0BB60F921BBE8F93EF93FF9301
S1130310F894E4E0F7E08081886080838081877FBF
S11303208083FF91EF918F910F900BBE0F9008BEC9
S11303300F900FBE0F901F9018951F920F920FB63B
S11303400F92112408B60F9218BE0BB60F921BBE63
S11303508F93EF93FF93F894E4E0F7E0808180615A
S1130360808380818F7E8083FF91EF918F910F90A6
S11303700BBE0F9008BE0F900FBE0F901F901895E4
S11303801F920F920FB60F92112408B60F9218BE47
S11303900BB60F921BBE8F93EF93FF93F894E4E098
S11303A0F7E080818062808380818F7D8083FF91EC
S11303B0EF918F910F900BBE0F9008BE0F900FBE60
S11303C00F901F9018951F920F920FB60F92112441
S11303D008B60F9218BE0BB60F921BBE2F938F93C5
S11303E09F93EF93FF93F8948091022090910320C0
S11303F0873E23E0920769F41092022010920320B2
S1130400E4E0F7E080818064808380818F7B808357
S113041005C001968093022090930320FF91EF91F1
S11304209F918F912F910F900BBE0F9008BE0F904C
S11304300FBE0F901F9018951F920F920FB60F9238
S1130440112408B60F9218BE0BB60F921BBE2F9341
S11304508F939F93EF93FF93F89480910020909152
S11304600120873E23E0920769F410920020109245
S11304700120E4E0F7E080818068808380818F77C9
S1130480808305C001968093002090930120FF9102
S1130490EF919F918F912F910F900BBE0F9008BEFB
S11304A00F900FBE0F901F9018951F920F920FB6CA
S11304B00F92112408B60F9218BE0BB60F921BBEF2
S11304C08F93EF93FF93F894E4E2F7E080818160E7
S11304D0808380818E7F8083FF91EF918F910F9035
S11304E00BBE0F9008BE0F900FBE0F901F90189573
S11304F0E0E4F6E080818A7E8083E0E6F6E08081B5
S11305008E7E8083E0E8F6E080818A7E808321E02D
S1130510209350062093520620935406209370068D
S113052020937406209390062093920620939406B9
S113053080E68093820184E68093830188E6809339
S113054084018CE68093850180E78093860184E7AB
S11305508093870110928A0110928B0110928C0172
S113056010928D0110928E0110928F0187EE93E00C
S113057080932608909327088093660890936708D1
S113058080932609909327098093660990936709BD
S11305908093260A9093270A8093660A9093670AA9
S11305A08AE0809300088BE0809340088CE080937D
S11305B000098DE0809340098EE08093000A8FE06B
S11305C08093400A84E080934A0680938A06E9E493
S11305D0F6E0808183608083E9E8F6E080818360CF
S11305E08083E0EAF6E080818A7E808383E08093E2
S11305F0B0068093B2061092B40688E78093800117
S11306008CE780938101E8E8F1E080818061808358
S1130610808185608083808188608083E3E0FBE063
S11306208081806680838081886080838FEF9CE7EF
S11306308093260B9093270B2093000BE6E0FBE0BE
S1130640808183608083E2EAF0E08081846080833B
S1130650E0E0F7E080818FEF8083E0E2F7E08081E3
S1130660816080830895CF93DF931F921F92CDB74B
S1130670DEB73EDF789419821A8289819A81FDCF90
S1070680F894FFCF18
S9030000FC
